:020000040000FA
:100000000C9470000C9498000C9498000C94980038
:100010000C9498000C9498000C9498000C94980000
:100020000C9498000C9498000C9498000C949800F0
:100030000C9498000C9498000C9498000C949800E0
:100040000C94A8030C9498000C9418040C94F203DC
:100050000C9498000C9498000C9498000C949800C0
:100060000C9498000C94980005A84CCDB2D44EB9CD
:100070003836A9020C50B9918688083CA6AAAA2A4B
:10008000BE000000803F5A73757445746865726ED7
:1000900065745544503A3A626567696E5061636BA6
:1000A000657428636F6E73742063686172202A68B8
:1000B0006F73742C2075696E7431365F7420706FA5
:1000C0007274293B206973206E6F74207375707091
:1000D0006F727465642120536F72727921004A0433
:1000E00011241FBECFEFD8E0DEBFCDBF11E0A0E0EE
:1000F000B1E0E4E3F8E102C005900D92A23BB10744
:10010000D9F724E0A2EBB1E001C01D92A133B20700
:10011000E1F710E0C0E7D0E004C02197FE010E94A3
:10012000120CCF36D107C9F70E94C9040C94180CE1
:100130000C940000AF92BF92CF92DF92EF92FF92A9
:100140000F931F93CF93DF936C017B018B01040FFF
:10015000151FEB015E01AE18BF08C017D10759F09B
:100160006991D601ED91FC910190F081E02DC601DD
:100170000995892B79F7C501DF91CF911F910F91D7
:10018000FF90EF90DF90CF90BF90AF900895FC016B
:10019000538D448D252F30E0842F90E0821B930BEC
:1001A000541710F0CF96089501970895FC01918D92
:1001B000828D981761F0A28DAE0FBF2FB11D5D9695
:1001C0008C91928D9F5F9F73928F90E008958FEF37
:1001D0009FEF0895FC01918D828D981731F0828DEB
:1001E000E80FF11D858D90E008958FEF9FEF089542
:1001F000FC01918D228D892F90E0805C9F4F821BA6
:1002000091098F73992708958DE493E00E94F80077
:1002100021E0892B09F420E0822F089580E090E00E
:10022000892B29F00E94040181110C94000008958B
:10023000FC01A48DA80FB92FB11DA35ABF4F2C915B
:10024000848D90E001968F739927848FA689B78952
:100250002C93A089B1898C91837080648C93938D49
:10026000848D981306C00288F389E02D80818F7DEC
:1002700080830895EF92FF920F931F93CF93DF93A4
:10028000EC0181E0888F9B8D8C8D98131AC0E889D2
:10029000F989808185FF15C09FB7F894EE89FF89A1
:1002A0006083E889F98980818370806480839FBF3F
:1002B00081E090E0DF91CF911F910F91FF90EF903F
:1002C0000895F62E0B8D10E00F5F1F4F0F7311274F
:1002D000E02E8C8D8E110CC00FB607FCFACFE8898A
:1002E000F989808185FFF5CFCE010E941801F1CFF9
:1002F000EB8DEC0FFD2FF11DE35AFF4FF0829FB7FE
:10030000F8940B8FEA89FB8980818062CFCFCF93ED
:10031000DF93EC01888D8823B9F0AA89BB89E8892D
:10032000F9898C9185FD03C0808186FD0DC00FB6D3
:1003300007FCF7CF8C9185FFF2CF808185FFEDCF51
:10034000CE010E941801E9CFDF91CF91089581E09D
:10035000089587E08CBF95EE9BBF1ABE8CBF86EEDA
:100360008BBF1ABE089590E080E0089597E09CBF8F
:1003700087EE8BBF2AB79CBF88EE8BBF8AB7322F20
:10038000282F9CBF85EE8BBF8AB79CBF96EE9BBF84
:100390009AB7892798278927821B930B48175907F3
:1003A00008F4CA01A9014751584FFB01DB01A80F0E
:1003B000B91FEA17FB0739F05CBF4BBF6AB76193FF
:1003C0004F5F5F4FF6CF280F391F47E04CBF57EE06
:1003D0005BBF3ABF4CBF38EE3BBF2ABF0895CF93F7
:1003E000DF931F92CDB7DEB7DC01ED91FC91028C5B
:1003F000F38DE02D41E050E0BE016F5F7F4F099526
:100400001816190634F4898190E00F90DF91CF918E
:1004100008958FEF9FEFF9CFFC0197E09CBF85EE29
:100420008BBF8AB79CBF26EE2BBF6AB79CBF27EE57
:100430002BBF2AB79CBF98EE9BBF3AB71CBE90E17A
:100440009BBF9AB71CBE4FE04BBF4AB71CBE5EE0D5
:100450005BBF5AB71CBE7DE07BBF7AB7708B518BF8
:10046000428B938B1CBE91E19BBF4AB71CBE92E1AD
:100470009BBF9AB7542F492F558B448B982F862FAB
:10048000232732272327821B930B08951CBE83E169
:100490008BBF8AB71CBE94E19BBF9AB78927982768
:1004A0008927FB019C012B5E3F4FDB01A40FB51F89
:1004B000EA17FB0739F061913CBF2BBF6ABF2F5F82
:1004C0003F4FF6CF480F591F1CBE83E18BBF5ABF69
:1004D0001CBE84E18BBF4ABF90E080E00895CF93BB
:1004E000DF931F92CDB7DEB76983DC01ED91FC91FC
:1004F0000280F381E02D41E050E0BE016F5F7F4F4D
:1005000009950F90DF91CF9108951CBE1BBE8FEF10
:100510008ABF1CBE1BBE82E08ABF90E080E00895C7
:10052000FB0132812381948185811CBE1BBE61E069
:100530006ABF1CBE6DE06BBF3ABF1CBE3EE03BBF56
:100540002ABF1CBE2FE02BBF9ABF1CBE90E19BBFF1
:100550008ABF1CBE81E18BBF5ABF1CBE82E18BBF2C
:100560004ABF81E090E008950895DC01ED91FC918F
:10057000008CF18DE02D09941CBE8BE08BBF7ABFFF
:100580001CBE8CE08BBF6ABF1CBE1BBE83E08ABF53
:1005900081E00895FC0184899589089526E431E07D
:1005A000FC0131832083FB01408951896289738971
:1005B000FC0142835383648375830895DC01ED91CC
:1005C000FC91028CF38DE02D099490E080E0089579
:1005D000FB0101900020E9F73197AF01461B570B53
:1005E000DC01ED91FC910280F381E02D09948F9262
:1005F0009F92AF92BF92EF92FF920F931F93CF9370
:10060000DF93CDB7DEB7A1970FB6F894DEBF0FBE6C
:10061000CDBF7C01FA01CB0119A2223008F42AE0F7
:100620008E010F5D1F4F822E912CB12CA12CBF018A
:10063000A50194010E942409F901CA016A300CF550
:10064000605DD8016E938D01232B242B252B79F728
:1006500090E080E0109721F0BD01C7010E94E80200
:10066000A1960FB6F894DEBF0FBECDBFDF91CF913C
:100670001F910F91FF90EF90BF90AF909F908F9040
:100680000895695CDECF8F929F92AF92BF92CF9216
:10069000DF92EF92FF920F931F93CF93DF937C0132
:1006A000EB016C0182E0C80ED11C4701E5E08E0E23
:1006B000911C10E000E0F60141916F0150E070E004
:1006C00060E02AE0CE010E94F7025C01E881F98136
:1006D0000190F081E02D6EE2CE0109958A0D9B1DFF
:1006E000080F191FC814D90431F7F701458150E0EC
:1006F00070E060E02AE0CE010E94F702800F911FB7
:10070000DF91CF911F910F91FF90EF90DF90CF90ED
:10071000BF90AF909F908F900895CF93DF93C6E8DE
:10072000D0E0FE016491662339F08DE493E00E94ED
:100730003A012196892BA9F768E471E08DE493E0F2
:100740000E94E802989590E080E0DF91CF910895B3
:100750001F920F920FB60F9211242F933F938F93F6
:100760009F93AF93BF938091490390914A03A091C7
:100770004B03B0914C033091480323E0230F2D37F6
:1007800058F50196A11DB11D20934803809349039C
:1007900090934A03A0934B03B0934C03809144037E
:1007A00090914503A0914603B09147030196A11D86
:1007B000B11D8093440390934503A0934603B093E7
:1007C0004703BF91AF919F918F913F912F910F90D0
:1007D0000FBE0F901F90189526E8230F0296A11DBB
:1007E000B11DD2CF1F920F920FB60F9211242F93EB
:1007F0003F934F935F936F937F938F939F93AF93A9
:10080000BF93EF93FF938DE493E00E941801FF9153
:10081000EF91BF91AF919F918F917F916F915F9178
:100820004F913F912F910F900FBE0F901F901895F1
:100830001F920F920FB60F9211242F938F939F93B5
:10084000EF93FF93E0915D03F0915E038081E0916F
:100850006303F091640382FD1BC090818091660365
:100860008F5F8F7320916703821741F0E0916603D9
:10087000F0E0E35BFC4F958F80936603FF91EF916F
:100880009F918F912F910F900FBE0F901F901895F1
:100890008081F4CFEDE4F3E01382128248EE53E05E
:1008A00060E070E044835583668377838CE091E059
:1008B0009183808385EC90E09587848784EC90E039
:1008C0009787868780EC90E0918B808B81EC90E01D
:1008D000938B828B82EC90E0958B848B86EC90E0FE
:1008E000978B868B118E128E138E148EEAEEF3E0A8
:1008F00086E491E0918380831282138214821582B0
:10090000E8EFF3E0918380831282138214821582D0
:10091000E0EFF3E0918380831282138214821582C8
:10092000EEEFF3E0918380831282138214821582AA
:10093000E4E0F4E0918380831282138214821582B2
:10094000EBE2F4E091838083128213821482158299
:10095000E0E1F4E013821282448355836683778357
:100960002EE131E03183208397878687108A118AB0
:10097000128A138A24E0208FEAE0F4E091838083D6
:1009800080EC828388EA838388E384838AE6858394
:100990000895CF93DF93CDB7DEB7C55AD1090FB60F
:1009A000F894DEBF0FBECDBF789484B5826084BD5D
:1009B00084B5816084BD85B5826085BD85B5816063
:1009C00085BD80916E00816080936E0010928100E1
:1009D000809181008260809381008091810081609C
:1009E000809381008091800081608093800080915D
:1009F000B10084608093B1008091B00081608093E9
:100A0000B00080917A00846080937A0080917A00AF
:100A1000826080937A0080917A00816080937A006E
:100A200080917A00806880937A001092C100E091F2
:100A30005D03F0915E0382E08083E0915903F091C1
:100A40005A031082E0915B03F0915C0380E18083A4
:100A500010926503E0916103F091620386E0808368
:100A6000E0915F03F0916003808180618083E09179
:100A70005F03F0916003808188608083E0915F0371
:100A8000F0916003808180688083E0915F03F09142
:100A9000600380818F7D80836BE471E08DE493E05F
:100AA0000E94E80268E471E08DE493E00E94E802AD
:100AB00018E01093F2031093F3031093F4031093D0
:100AC000F50364EE70E180E194E00E94BC0286E4EC
:100AD000E82E81E0F82EFA82E9821B821C821D82B8
:100AE0001E821CBE8AE08BBF8AB71CBE99E09BBFEA
:100AF0009AB71CBE1BBF2AB71CBE37E03BBF3AB734
:100B00003B832C839D838E836DE473E0CE0101963D
:100B10000E94430368E471E08DE493E00E94E802E0
:100B20001E0121E8220E311C81E0F10180838183C6
:100B300021E030E0338322838483FA82E98280914A
:100B40000C0490910D04A0910E04B0910F048B83BE
:100B50009C83AD83BE8349E350E3BE016F5F7F4F4B
:100B600080E194E00E94900245E050E0B10180E114
:100B700094E00E94460280E194E00E948502810197
:100B800080E194E00E940C02892B09F478C140E8CE
:100B900050E0BE016F5F7F4F80E194E00E94B6019C
:100BA0008981823009F07FC08D819E8190934303BB
:100BB000809342038F8198859093410380934003F3
:100BC00089859A8590933F0380933E038B859C850E
:100BD00090933D0380933C036D857E85072E000C2A
:100BE000880B990B0E94600A20ED3FE049E450E435
:100BF0000E94540B20E030E044E353E40E94BD091E
:100C000060933203709333038093340390933503DE
:100C10006CE571E08DE493E00E94E80240914203AC
:100C20005091430370E060E02AE08DE493E00E947D
:100C3000F70263E771E08DE493E00E94E8024091DF
:100C400040035091410370E060E02AE08DE493E0BE
:100C50000E94F70265E771E08DE493E00E94E802EC
:100C600040913E0350913F0370E060E02AE08DE444
:100C700093E00E94F70263E771E08DE493E00E9445
:100C8000E80240913C0350913D0370E060E02AE0AF
:100C90008DE493E00E94F70268E471E08DE493E054
:100CA0000E94E802ECC0833009F09CC26AE771E060
:100CB0008DE493E00E94E8024B815C8170E060E08B
:100CC0002AE08DE493E00E94F70268E471E08DE48D
:100CD00093E00E94E802FA81CD55DF4FF883C35AB2
:100CE000D0409E012B5F3F4FC156DF4F3983288391
:100CF000CF59D0408B819C81CC55DF4F998388831D
:100D0000C45AD040C556DF4F19821882CB59D04003
:100D1000CC55DF4FE881F981C45AD040C556DF4F2A
:100D200028813981CB59D040E217F30709F426C254
:100D3000C156DF4FE881F981CF59D0408191C1562A
:100D4000DF4FF983E883CF59D040863409F4A4C03B
:100D5000863609F054C1CF55DF4F19821882C15A27
:100D6000D04082E090E0C356DF4F99838883CD590D
:100D7000D040409038035090390360903A0370900F
:100D80003B03C301B2010E94B809209104013091D4
:100D9000050140910601509107010E9447094B014E
:100DA0005C01C301B2010E94C10B2091000130918E
:100DB000010140910201509103010E9447096B011A
:100DC0007C01609140037091410390E080E00E94BB
:100DD0005E0A9B01AC01C501B4010E944F0B87FD67
:100DE00064C086E0F8018083118280E190E0938303
:100DF000828384829582A682B782C086D186E2866B
:100E0000F3864486558666867786C556DF4F2881E9
:100E10003981CB59D040C901330FAA0BBB0B808B52
:100E2000918BA28BB38B86E491E0CB56DF4F9983F5
:100E30008883C559D04080910C0490910D04A091F5
:100E40000E04B0910F04C956DF4F88839983AA839B
:100E5000BB83C759D04049E350E3BE016B567F4F77
:100E600080E194E00E94900244E150E0B10180E111
:100E700094E00E94460280E194E00E94850280E0B6
:100E800090E0892B09F47CCE0E940401882309F4A8
:100E900077CE0E94000074CE21E030E0CF55DF4FC6
:100EA00039832883C15AD0405CCF6091420370914E
:100EB000430390E080E00E945E0A9B01AC01C50103
:100EC000B4010E94B30987FD8CCF60913C037091FF
:100ED0003D0390E080E00E945E0A9B01AC01C701E7
:100EE000B6010E944F0B87FF7CCF60913E0370914B
:100EF0003F0390E080E00E945E0A9B01AC01C701C5
:100F0000B6010E94B30987FD6CCF809204019092D4
:100F10000501A0920601B0920701C0920001D09293
:100F20000101E0920201F0920301CF55DF4F2881C9
:100F30003981C15AD040232B09F450C025E0F80173
:100F40002083118285E090E09383828320E030E06B
:100F500040E05FE3C501B4010E9447090E942F0AE7
:100F6000F8017583648320E030E040E05FE3C7016F
:100F7000B6010E9447090E942F0AF8017783668311
:100F800023E2208786E491E0CB56DF4F9983888364
:100F9000C559D04080910C0490910D04A0910E048D
:100FA000B0910F04C956DF4F88839983AA83BB830E
:100FB000C759D04049E350E3BE016B567F4F80E1F3
:100FC00094E00E94900249E050E0B10180E194E099
:100FD0000E94460280E194E00E948502C356DF4FE2
:100FE000E881F981CD59D0403197D1F1E1E0F0E0CD
:100FF000C356DF4FF983E883CD59D040BACE8B3248
:1010000099F420913203309133034091340350918D
:101010003503609138037091390380913A039091C0
:101020003B030E94470914C08D3249F520913203D9
:10103000309133034091340350913503609138036C
:101040007091390380913A0390913B030E944609C5
:10105000609338037093390380933A0390933B0372
:10106000C556DF4F28813981CB59D0402F5F3F4F84
:10107000C556DF4F39832883CB59D04049CE8C37B2
:1010800029F420ED3FE049E450E4C3CF8B35C9F5A6
:101090008091360390913703803291050CF72CE054
:1010A000289FF001299FF00D1124EE54FE4F40912E
:1010B0000401509105016091060170910701408380
:1010C00051836283738340910001509101016091CB
:1010D00002017091030144835583668377834091B5
:1010E00038035091390360913A0370913B03408774
:1010F00051876287738701969093370380933603F5
:10110000AFCF8D3509F0ACCF809136039091370386
:10111000181619060CF0A4CF01979093370380930B
:1011200036032CE0289FF001299FF00D1124EE5486
:10113000FE4F80819181A281B381809304019093BD
:101140000501A0930601B093070184819581A681D2
:10115000B7818093000190930101A0930201B093A5
:10116000030180859185A285B38580933803909390
:101170003903A0933A03B0933B0372CF84E0CB567C
:10118000DF4F8883C559D040CD55DF4F3881C35AD2
:10119000D040CA56DF4F3883C659D040C956DF4FBA
:1011A00019821882C759D04086E491E0F8019183F2
:1011B000808380910C0490910D04A0910E04B09155
:1011C0000F0482839383A483B58349E350E3B10181
:1011D00080E194E00E94900244E050E0BE016B5632
:1011E0007F4F45CE873009F04ACE8D859E85AF85ED
:1011F000B88949855A856B857C85CD80DE80EF80F6
:10120000F884C0920401D0920501E0920601F092A8
:101210000701409300015093010160930201709314
:1012200003018093380390933903A0933A03B0935A
:101230003B0310923703109236036FE871E08DE4A0
:1012400093E00E94E80228CDA1E21A2EAA1BBB1B44
:10125000FD010DC0AA1FBB1FEE1FFF1FA217B30782
:10126000E407F50720F0A21BB30BE40BF50B661F98
:10127000771F881F991F1A9469F76095709580955C
:1012800090959B01AC01BD01CF0108955058BB273B
:10129000AA270E945E090C94010B0E94C80A38F02C
:1012A0000E94CF0A20F039F49F3F19F426F40C94E1
:1012B000C50A0EF4E095E7FB0C94BF0AE92F0E94E3
:1012C000260B58F3BA17620773078407950720F0B7
:1012D00079F4A6F50C94480B0EF4E0950B2EBA2F7A
:1012E000A02D0B01B90190010C01CA01A00111242C
:1012F000FF27591B99F0593F50F4503E68F11A16D8
:10130000F040A22F232F342F4427585FF3CF469568
:1013100037952795A795F0405395C9F77EF41F168A
:10132000BA0B620B730B840BBAF09150A1F0FF0F54
:10133000BB1F661F771F881FC2F70EC0BA0F621F40
:10134000731F841F48F4879577956795B795F79530
:101350009E3F08F0B0CF9395880F08F09927EE0FC5
:101360009795879508950E949B0A08F481E0089557
:101370000E94D80AE3950C94120B0E94D1090C9498
:10138000010B0E94CF0A58F00E94C80A40F029F4CD
:101390005F3F29F00C94BF0A51110C94490B0C9437
:1013A000C50A0E94260B68F39923B1F3552391F3E4
:1013B000951B550BBB27AA2762177307840738F0C4
:1013C0009F5F5F4F220F331F441FAA1FA9F335D021
:1013D0000E2E3AF0E0E832D091505040E695001CD5
:1013E000CAF72BD0FE2F29D0660F771F881FBB1F8F
:1013F000261737074807AB07B0E809F0BB0B802D6D
:10140000BF01FF2793585F4F3AF09E3F510578F098
:101410000C94BF0A0C94490B5F3FE4F3983ED4F35D
:10142000869577956795B795F7959F5FC9F7880F6C
:10143000911D9695879597F90895E1E0660F771FBE
:10144000881FBB1F621773078407BA0720F0621B4F
:10145000730B840BBA0BEE1F88F7E09508950E947A
:101460002E0B88F09F5798F0B92F9927B751B0F0FD
:10147000E1F0660F771F881F991F1AF0BA95C9F718
:1014800014C0B13091F00E94480BB1E008950C9463
:10149000480B672F782F8827B85F39F0B93FCCF316
:1014A000869577956795B395D9F73EF49095809595
:1014B000709561957F4F8F4F9F4F0895E89409C0B5
:1014C00097FB3EF490958095709561957F4F8F4F77
:1014D0009F4F9923A9F0F92F96E9BB279395F6958D
:1014E000879577956795B795F111F8CFFAF4BB0F0B
:1014F00011F460FF1BC06F5F7F4F8F4F9F4F16C06F
:10150000882311F096E911C0772321F09EE8872FF8
:10151000762F05C0662371F096E8862F70E060E0B4
:101520002AF09A95660F771F881FDAF7880F96952D
:10153000879597F90895990F0008550FAA0BE0E8D1
:10154000FEEF16161706E807F907C0F01216130685
:10155000E407F50798F0621B730B840B950B39F4C5
:101560000A2661F0232B242B252B21F408950A262B
:1015700009F4A140A6958FEF811D811D089597F96B
:101580009F6780E870E060E008959FEF80EC089529
:1015900000240A9416161706180609060895002452
:1015A0000A94121613061406050608950C94C50A2B
:1015B0000E942E0BD8F3E894E0E0BB279F57F0F091
:1015C0002AED3FE049EC06C0EE0FBB0F661F771F08
:1015D000881F28F0B23A62077307840728F0B25ACE
:1015E000620B730B840BE3959A9572F7803830F495
:1015F0009A95BB0F661F771F881FD2F790480C94EF
:10160000CB0B092E0394000C11F4882352F0BB0F6E
:1016100040F4BF2B11F460FF04C06F5F7F4F8F4F0A
:101620009F4F0895EF93E0FF07C0A2EA2AED3FE045
:1016300049EC5FEB0E945E090E94010B0F9003943E
:1016400001FC9058E8E6F0E00C94D70B57FD905859
:10165000440F551F59F05F3F71F04795880F97FB76
:10166000991F61F09F3F79F0879508951216130630
:101670001406551FF2CF4695F1DF08C0161617065F
:101680001806991FF1CF8695710561050894089594
:10169000E894BB2766277727CB0197F908950E9426
:1016A0009B0A08F48FEF08950E94670B0C94010BBE
:1016B0000E94C80A38F00E94CF0A20F0952311F04A
:1016C0000C94BF0A0C94C50A11240C94490B0E9477
:1016D000260B70F3959FC1F3950F50E0551F629F45
:1016E000F001729FBB27F00DB11D639FAA27F00D7B
:1016F000B11DAA1F649F6627B00DA11D661F829FA2
:101700002227B00DA11D621F739FB00DA11D621F86
:10171000839FA00D611D221F749F3327A00D611DA3
:10172000231F849F600D211D822F762F6A2F112485
:101730009F5750409AF0F1F088234AF0EE0FFF1FB8
:10174000BB1F661F771F881F91505040A9F79E3F0F
:10175000510580F00C94BF0A0C94490B5F3FE4F3F1
:10176000983ED4F3869577956795B795F795E79565
:101770009F5FC1F7FE2B880F911D9695879597F96E
:1017800008959F930E94D80A0F9007FCEE5F0C9477
:10179000120B9F3F31F0915020F487957795679514
:1017A000B795880F911D9695879597F908959F9302
:1017B0008F937F936F93FF93EF939B01AC010E94F4
:1017C000540BEF91FF910E94EB0B2F913F914F91A2
:1017D0005F910C94540BDF93CF931F930F93FF9261
:1017E000EF92DF927B018C01689406C0DA2EEF0144
:1017F0000E94670BFE01E894A591259135914591D2
:101800005591A6F3EF010E945E09FE019701A80120
:10181000DA9469F7DF90EF90FF900F911F91CF91CD
:10182000DF910895EE0FFF1F0590F491E02D0994CC
:10183000F894FFCF0000C8410000C841000000003C
:101840003A019A00C7008701F800D600EA000000BC
:1018500000006F024602E502A901B502EF01B301E3
:10186000BC02B40290028D0385020C02B601DE02B6
:10187000CE02CA02A7010000000043030D0A004E79
:101880006F6465207374617274696E672E2E2E000A
:10189000526567697374657265642120426F756E65
:1018A000647320583A20002D0020593A20004461EA
:1018B00074612072656365697665642C206C656E61
:1018C0003A200053746174652075706461746564B6
:1018D000202848616E646F76657220726563656961
:0618E00076656429210079
:107E0000112484B714BE81FFF0D085E080938100F7
:107E100082E08093C00088E18093C10086E0809377
:107E2000C20080E18093C4008EE0C9D0259A86E02C
:107E300020E33CEF91E0309385002093840096BBD3
:107E4000B09BFECF1D9AA8958150A9F7CC24DD24C4
:107E500088248394B5E0AB2EA1E19A2EF3E0BF2EE7
:107E6000A2D0813461F49FD0082FAFD0023811F036
:107E7000013811F484E001C083E08DD089C08234E0
:107E800011F484E103C0853419F485E0A6D080C0E4
:107E9000853579F488D0E82EFF2485D0082F10E0AE
:107EA000102F00270E291F29000F111F8ED06801E7
:107EB0006FC0863521F484E090D080E0DECF843638
:107EC00009F040C070D06FD0082F6DD080E0C81688
:107ED00080E7D80618F4F601B7BEE895C0E0D1E017
:107EE00062D089930C17E1F7F0E0CF16F0E7DF06D8
:107EF00018F0F601B7BEE89568D007B600FCFDCFD4
:107F0000A601A0E0B1E02C9130E011968C91119780
:107F100090E0982F8827822B932B1296FA010C0160
:107F200087BEE89511244E5F5F4FF1E0A038BF0790
:107F300051F7F601A7BEE89507B600FCFDCF97BE46
:107F4000E89526C08437B1F42ED02DD0F82E2BD052
:107F50003CD0F601EF2C8F010F5F1F4F84911BD097
:107F6000EA94F801C1F70894C11CD11CFA94CF0C13
:107F7000D11C0EC0853739F428D08EE10CD085E9AC
:107F80000AD08FE07ACF813511F488E018D01DD067
:107F900080E101D065CF982F8091C00085FFFCCF94
:107FA0009093C60008958091C00087FFFCCF809118
:107FB000C00084FD01C0A8958091C6000895E0E648
:107FC000F0E098E1908380830895EDDF803219F02E
:107FD00088E0F5DFFFCF84E1DECF1F93182FE3DFCA
:107FE0001150E9F7F2DF1F91089580E0E8DFEE27F6
:047FF000FF270994CA
:027FFE00040479
:00000001FF
