:100000000C9470000C9498000C9498000C94980038
:100010000C9498000C9498000C9498000C94980000
:100020000C9498000C9498000C9498000C949800F0
:100030000C9498000C9498000C9498000C949800E0
:100040000C9408040C9498000C9478040C945204BA
:100050000C9498000C9498000C9498000C949800C0
:100060000C9498000C94980005A84CCDB2D44EB9CD
:100070003836A9020C50B9918688083CA6AAAA2A4B
:10008000BE000000803F5A73757445746865726ED7
:1000900065745544503A3A626567696E5061636BA6
:1000A000657428636F6E73742063686172202A68B8
:1000B0006F73742C2075696E7431365F7420706FA5
:1000C0007274293B206973206E6F74207375707091
:1000D0006F727465642120536F7272792100AA04D3
:1000E00011241FBECFEFD8E0DEBFCDBF11E0A0E0EE
:1000F000B1E0E6E9FDE102C005900D92AC3AB1072E
:10010000D9F724E0ACEAB1E001C01D92A732B207F2
:10011000E1F710E0C0E7D0E004C02197FE010E94A3
:10012000C30ECF36D107C9F70E9429050C94C90E1A
:100130000C940000AF92BF92CF92DF92EF92FF92A9
:100140000F931F93CF93DF936C017B018B01040FFF
:10015000151FEB015E01AE18BF08C017D10759F09B
:100160006991D601ED91FC910190F081E02DC601DD
:100170000995892B79F7C501DF91CF911F910F91D7
:10018000FF90EF90DF90CF90BF90AF900895FC016B
:10019000538D448D252F30E0842F90E0821B930BEC
:1001A000541710F0CF96089501970895FC01918D92
:1001B000828D981761F0A28DAE0FBF2FB11D5D9695
:1001C0008C91928D9F5F9F73928F90E008958FEF37
:1001D0009FEF0895FC01918D828D981731F0828DEB
:1001E000E80FF11D858D90E008958FEF9FEF089542
:1001F000FC01918D228D892F90E0805C9F4F821BA6
:1002000091098F739927089583E493E00E94F80081
:1002100021E0892B09F420E0822F089580E090E00E
:10022000892B29F00E94040181110C94000008958B
:10023000FC01A48DA80FB92FB11DA35ABF4F2C915B
:10024000848D90E001968F739927848FA689B78952
:100250002C93A089B1898C91837080648C93938D49
:10026000848D981306C00288F389E02D80818F7DEC
:1002700080830895EF92FF920F931F93CF93DF93A4
:10028000EC0181E0888F9B8D8C8D98131AC0E889D2
:10029000F989808185FF15C09FB7F894EE89FF89A1
:1002A0006083E889F98980818370806480839FBF3F
:1002B00081E090E0DF91CF911F910F91FF90EF903F
:1002C0000895F62E0B8D10E00F5F1F4F0F7311274F
:1002D000E02E8C8D8E110CC00FB607FCFACFE8898A
:1002E000F989808185FFF5CFCE010E941801F1CFF9
:1002F000EB8DEC0FFD2FF11DE35AFF4FF0829FB7FE
:10030000F8940B8FEA89FB8980818062CFCFCF93ED
:10031000DF93EC01888D8823B9F0AA89BB89E8892D
:10032000F9898C9185FD03C0808186FD0DC00FB6D3
:1003300007FCF7CF8C9185FFF2CF808185FFEDCF51
:10034000CE010E941801E9CFDF91CF91089581E09D
:10035000089587E08CBF95EE9BBF1ABE8CBF86EEDA
:100360008BBF1ABE089590E080E0089597E09CBF8F
:1003700087EE8BBF2AB79CBF88EE8BBF8AB7322F20
:10038000282F9CBF85EE8BBF8AB79CBF96EE9BBF84
:100390009AB7892798278927821B930B48175907F3
:1003A00008F4CA01A9014751584FFB01DB01A80F0E
:1003B000B91FEA17FB0739F05CBF4BBF6AB76193FF
:1003C0004F5F5F4FF6CF280F391F47E04CBF57EE06
:1003D0005BBF3ABF4CBF38EE3BBF2ABF0895CF93F7
:1003E000DF931F92CDB7DEB7DC01ED91FC91028C5B
:1003F000F38DE02D41E050E0BE016F5F7F4F099526
:100400001816190634F4898190E00F90DF91CF918E
:1004100008958FEF9FEFF9CFFC0197E09CBF85EE29
:100420008BBF8AB79CBF26EE2BBF6AB79CBF27EE57
:100430002BBF2AB79CBF98EE9BBF3AB71CBE90E17A
:100440009BBF9AB71CBE4FE04BBF4AB71CBE5EE0D5
:100450005BBF5AB71CBE7DE07BBF7AB7708B518BF8
:10046000428B938B1CBE91E19BBF4AB71CBE92E1AD
:100470009BBF9AB7542F492F558B448B982F862FAB
:10048000232732272327821B930B08951CBE83E169
:100490008BBF8AB71CBE94E19BBF9AB78927982768
:1004A0008927FB019C012B5E3F4FDB01A40FB51F89
:1004B000EA17FB0739F061913CBF2BBF6ABF2F5F82
:1004C0003F4FF6CF480F591F1CBE83E18BBF5ABF69
:1004D0001CBE84E18BBF4ABF90E080E00895CF93BB
:1004E000DF931F92CDB7DEB76983DC01ED91FC91FC
:1004F0000280F381E02D41E050E0BE016F5F7F4F4D
:1005000009950F90DF91CF9108951CBE1BBE8FEF10
:100510008ABF1CBE1BBE82E08ABF90E080E00895C7
:10052000FB0132812381948185811CBE1BBE61E069
:100530006ABF1CBE6DE06BBF3ABF1CBE3EE03BBF56
:100540002ABF1CBE2FE02BBF9ABF1CBE90E19BBFF1
:100550008ABF1CBE81E18BBF5ABF1CBE82E18BBF2C
:100560004ABF81E090E008950895DC01ED91FC918F
:10057000008CF18DE02D09941CBE8BE08BBF7ABFFF
:100580001CBE8CE08BBF6ABF1CBE1BBE83E08ABF53
:1005900081E00895FC0184899589089526E431E07D
:1005A000FC0131832083FB01408951896289738971
:1005B000FC0142835383648375830895DC01ED91CC
:1005C000FC91028CF38DE02D099490E080E0089579
:1005D000AF92BF92CF92DF92EF92FF920F931F9351
:1005E000CF93DF93CDB7DEB76A970FB6F894DEBF2F
:1005F0000FBECDBFE6E0E9831A82E0E1F0E0FC83C4
:10060000EB836D837E838F83988729873A874B8717
:100610005C87ED86FE860F87188BA98ABA8ACB8AFB
:10062000DC8A86E491E09E8B8D8B80910204909110
:100630000304A0910404B09105048F8B988FA98FB7
:10064000BA8F49E350E3BE016B5E7F4F86E094E0D2
:100650000E94900244E150E0BE016F5F7F4F86E050
:1006600094E00E94460286E094E00E9485026A9629
:100670000FB6F894DEBF0FBECDBFDF91CF911F91B3
:100680000F91FF90EF90DF90CF90BF90AF900895C3
:10069000FB0101900020E9F73197AF01461B570B92
:1006A000DC01ED91FC910280F381E02D09948F92A1
:1006B0009F92AF92BF92EF92FF920F931F93CF93AF
:1006C000DF93CDB7DEB7A1970FB6F894DEBF0FBEAC
:1006D000CDBF7C01FA01CB0119A2223008F42AE037
:1006E0008E010F5D1F4F822E912CB12CA12CBF01CA
:1006F000A50194010E94D50BF901CA016A300CF5DD
:10070000605DD8016E938D01232B242B252B79F767
:1007100090E080E0109721F0BD01C7010E944803DE
:10072000A1960FB6F894DEBF0FBECDBFDF91CF917B
:100730001F910F91FF90EF90BF90AF909F908F907F
:100740000895695CDECF8F929F92AF92BF92CF9255
:10075000DF92EF92FF920F931F93CF93DF937C0171
:10076000EB016C0182E0C80ED11C4701E5E08E0E62
:10077000911C10E000E0F60141916F0150E070E043
:1007800060E02AE0CE010E9457035C01E881F98114
:100790000190F081E02D6EE2CE0109958A0D9B1D3E
:1007A000080F191FC814D90431F7F701458150E02B
:1007B00070E060E02AE0CE010E945703800F911F95
:1007C000DF91CF911F910F91FF90EF90DF90CF902D
:1007D000BF90AF909F908F900895CF93DF93C6E81E
:1007E000D0E0FE016491662339F083E493E00E9437
:1007F0003A012196892BA9F768E471E083E493E03C
:100800000E944803989590E080E0DF91CF91089591
:100810001F920F920FB60F9211242F933F938F9335
:100820009F93AF93BF9380913F0390914003A0911A
:100830004103B091420330913E0323E0230F2D3753
:1008400058F50196A11DB11D20933E0380933F03EF
:1008500090934003A0934103B093420380913A03E5
:1008600090913B03A0913C03B0913D030196A11DE3
:10087000B11D80933A0390933B03A0933C03B09344
:100880003D03BF91AF919F918F913F912F910F9019
:100890000FBE0F901F90189526E8230F0296A11DFA
:1008A000B11DD2CF1F920F920FB60F9211242F932A
:1008B0003F934F935F936F937F938F939F93AF93E8
:1008C000BF93EF93FF9383E493E00E941801FF919D
:1008D000EF91BF91AF919F918F917F916F915F91B8
:1008E0004F913F912F910F900FBE0F901F90189531
:1008F0001F920F920FB60F9211242F938F939F93F5
:10090000EF93FF93E0915303F09154038081E091C2
:100910005903F0915A0382FD1BC0908180915C03C2
:100920008F5F8F7320915D03821741F0E0915C032C
:10093000F0E0ED5BFC4F958F80935C03FF91EF91AE
:100940009F918F912F910F900FBE0F901F90189530
:100950008081F4CFE3E4F3E01382128248EE53E0A7
:1009600060E070E044835583668377838CE091E098
:100970009183808385EC90E09587848784EC90E078
:100980009787868780EC90E0918B808B81EC90E05C
:10099000938B828B82EC90E0958B848B86EC90E03D
:1009A000978B868B118E128E138E148EE0EEF3E0F1
:1009B00086E491E0918380831282138214821582EF
:1009C000EEEEF3E09183808312821382148215820B
:1009D000E6EEF3E091838083128213821482158203
:1009E000E4EFF3E0918380831282138214821582F4
:1009F000EAEFF3E0918380831282138214821582DE
:100A0000E1E2F4E0918380831282138214821582E2
:100A1000E6E0F4E013821282448355836683778391
:100A20002EE131E03183208397878687108A118AEF
:100A3000128A138A24E0208FE0E0F4E0918380831F
:100A400080EC828388EA838388E384838AE68583D3
:100A50000895CF93DF93CDB7DEB7C35BD1090FB64F
:100A6000F894DEBF0FBECDBF789484B5826084BD9C
:100A700084B5816084BD85B5826085BD85B58160A2
:100A800085BD80916E00816080936E001092810020
:100A900080918100826080938100809181008160DB
:100AA000809381008091800081608093800080919C
:100AB000B10084608093B1008091B0008160809328
:100AC000B00080917A00846080937A0080917A00EF
:100AD000826080937A0080917A00816080937A00AE
:100AE00080917A00806880937A001092C100E09132
:100AF0005303F091540382E08083E0914F03F0911F
:100B000050031082E0915103F091520380E1808301
:100B100010925B03E0915703F091580386E08083C5
:100B2000E0915503F0915603808180618083E091CC
:100B30005503F0915603808188608083E0915503CE
:100B4000F0915603808180688083E0915503F09195
:100B5000560380818F7D80836BE471E083E493E0B2
:100B60000E94480368E471E083E493E00E94480334
:100B700018E01093E8031093E9031093EA0310932D
:100B8000EB0361EE70E186E094E00E94BC0286E433
:100B9000E82E81E0F82EFA82E9821B821C821D82F7
:100BA0001E821CBE8AE08BBF8AB71CBE99E09BBF29
:100BB0009AB71CBE1BBF2AB71CBE37E03BBF3AB773
:100BC0003B832C839D838E8363E473E0CE01019687
:100BD0000E94A30368E471E083E493E00E94480369
:100BE00081E0CF57DF4F8883C158D040CE57DF4FC9
:100BF0008883C258D04021E030E0CD57DF4F3983A1
:100C00002883C358D040CB57DF4F8883C558D04086
:100C1000FA82E9828091020490910304A091040475
:100C2000B09105048B839C83AD83BE8349E350E37D
:100C3000BE016F5F7F4F86E094E00E94900245E026
:100C400050E0BE016F577F4F86E094E00E9446025D
:100C500086E094E00E94850286E094E00E940C0207
:100C6000892B09F43EC340E850E0BE016F5F7F4F1F
:100C700086E094E00E94B6018981823009F051C07B
:100C80008D819E8190933903809338038F8198855D
:100C900090933703809336036D857E85072E000C75
:100CA000880B990B0E94110D20ED3FE049E450E4C0
:100CB0000E94050E20E030E044E353E40E946E0CF5
:100CC00060932C0370932D0380932E0390932F0336
:100CD0006CE571E083E493E00E944803409138039F
:100CE0005091390370E060E02AE083E493E00E94D1
:100CF000570362E771E083E493E00E944803409168
:100D000036035091370370E060E02AE083E493E01B
:100D10000E94570368E471E083E493E00E94480373
:100D2000E0C2833009F00FC564E771E083E493E02B
:100D30000E9448034B815C8170E060E02AE083E41C
:100D400093E00E94570368E471E083E493E00E941B
:100D500048038A81CF54DF4F8883C15BD040DE01D6
:100D60001596C555DF4FB983A883CB5AD040EB8188
:100D7000FC81CE54DF4FF983E883C25BD040B12CB5
:100D8000A12CCE54DF4F88819981C25BD040A81638
:100D9000B90609F493C4C555DF4FA881B981CB5A70
:100DA000D0408D91C555DF4FB983A883CB5AD04031
:100DB00002E010E0863409F401C2863609F0CCC3A3
:100DC0008091320390913303A0913403B0913503A5
:100DD000C955DF4F88839983AA83BB83C75AD04004
:100DE000BC01CD010E94690CC856DF4F688379832E
:100DF0008A839B83C859D04090910401C456DF4F29
:100E00009883CC59D040A0910501C356DF4FA883E9
:100E1000CD59D040B0910601C256DF4FB883CE59AC
:100E2000D040E0910701C156DF4FE883CF59D04051
:100E3000C955DF4F688179818A819B81C75AD0402B
:100E40000E94720E2B013C01F0910001C056DF4F51
:100E5000F883C05AD04080910101CF55DF4F88837D
:100E6000C15AD04090910201CE55DF4F9883C25AAB
:100E7000D040A0910301CD55DF4FA883C35AD04085
:100E8000609136037091370390E080E00E940F0D6F
:100E9000C355DF4F688379838A839B83CD5AD040C3
:100EA000E0903803F0903903C856DF4F288139812C
:100EB0004A815B81C859D040C456DF4F6881CC5904
:100EC000D040C356DF4F7881CD59D040C256DF4F56
:100ED0008881CE59D040C156DF4F9881CF59D0403C
:100EE0000E94F80B4B018C01C056DF4F2881C05A7D
:100EF000D040CF55DF4F3881C15AD040CE55DF4F5B
:100F00004881C25AD040CD55DF4F5881C35AD04096
:100F1000C301B2010E94F80BC057DF4F6883C0596C
:100F2000D040CC56DF4F7883C459D0401C01C35504
:100F3000DF4F288139814A815B81CD5AD040B4018D
:100F4000C8010E94000E87FFE7C2B70190E080E071
:100F50000E940F0D6B017C01AC019B01B401C80123
:100F60000E94640C87FDD8C220E030E048EC52E4D7
:100F7000C057DF4F6881C059D040CC56DF4F7881D1
:100F8000C459D040C1010E94000E87FFC5C220E0B5
:100F900030E0A901C057DF4F6881C059D040CC561E
:100FA000DF4F7881C459D040C1010E94640C87FD95
:100FB000B3C2C856DF4F288139814A815B81C85945
:100FC000D040B401C8010E94F80BC856DF4F6883B7
:100FD000C859D040CC55DF4F7883C45AD040CB5548
:100FE000DF4F8883C55AD040CA55DF4F9883C65A11
:100FF000D040C057DF4F2881C059D040CC56DF4F7A
:101000003881C459D040A101C301B2010E94F80B3C
:101010002B013C01C355DF4F288139814A815B8117
:10102000CD5AD040C856DF4F6881C859D040CC5502
:10103000DF4F7881C45AD040CB55DF4F8881C55AE5
:10104000D040CA55DF4F9881C65AD0400E94000E4A
:1010500087FD54C1C456DF4F8882CC59D040C35657
:10106000DF4F9882CD59D040C256DF4F0883CE590A
:10107000D040C156DF4F1883CF59D040C057DF4F03
:10108000B881C059D040C056DF4FB883C05AD04055
:10109000CC56DF4FE881C459D040CF55DF4FE883AD
:1010A000C15AD0406EC1C057DF4F88819981AA8153
:1010B000BB81C059D0408093040190930501A09357
:1010C0000601B09307014092000150920101609225
:1010D00002017092030195E0CF57DF4F9883C1580A
:1010E000D040CE57DF4F1882C258D040A5E0B0E0C4
:1010F000CD57DF4FB983A883C358D04020E030E0FC
:1011000040E05FE3C057DF4F688179818A819B812E
:10111000C059D0400E94F80B0E94E00CCB57DF4F23
:1011200079836883C558D04020E030E040E05FE339
:10113000C301B2010E94F80B0E94E00CC957DF4FB7
:1011400079836883C758D040B3E2C757DF4FB8836D
:10115000C958D040E6E4F1E0C657DF4FF983E88391
:10116000CA58D0408091020490910304A0910404D5
:10117000B0910504C457DF4F88839983AA83BB834A
:10118000CC58D04049E350E3BE0166577F4F86E01C
:1011900094E00E94900249E050E0BE016F577F4FFB
:1011A00086E094E00E94460286E094E00E94850278
:1011B0000130110509F4ACC101E010E08091320367
:1011C00090913303A0913403B0913503CC56DF4F97
:1011D00088839983AA83BB83C459D040BC01CD01C5
:1011E0000E94690C20910401309105014091060193
:1011F000509107010E94F80BC057DF4F6883798335
:101200008A839B83C059D040CC56DF4F6881798157
:101210008A819B81C459D0400E94720E20910001A6
:101220003091010140910201509103010E94F80B9D
:101230002B013C01609136037091370390E080E010
:101240000E940F0D9B01AC01C057DF4F688179816F
:101250008A819B81C059D0400E94000E87FF29C01F
:10126000609138037091390390E080E00E940F0D87
:101270009B01AC01C057DF4F688179818A819B81D6
:10128000C059D0400E94640C87FD13C020E030E0BC
:1012900048EC52E4C301B2010E94000E87FF09C06E
:1012A00020E030E0A901C301B2010E94640C87FF75
:1012B000FACE0B2C000CCC08DD08CC56DF4FE880B2
:1012C000F9800A811B81C459D040A3019201C05703
:1012D000DF4F688179818A819B81C059D0400E940B
:1012E000E80280E090E0892B09F4B6CC0E9404016A
:1012F000882309F4B1CC0E940000AECCC856DF4F61
:101300002881C859D040CC55DF4F3881C45AD040CD
:10131000CB55DF4F4881C55AD040CA55DF4F588161
:10132000C65AD040C701B6010E94000E18160CF034
:101330008DC0C456DF4F8882CC59D040C356DF4F92
:101340009882CD59D040C256DF4F0883CE59D04045
:10135000C156DF4F1883CF59D040C057DF4FF881B7
:10136000C059D040C056DF4FF883C05AD040CC5649
:10137000DF4F8881C459D040CF55DF4F8883C15A91
:10138000D040CE55DF4F2882C25AD040CD55DF4FD6
:101390003882C35AD040C456DF4F8881CC59D040E0
:1013A000C356DF4F9881CD59D040C256DF4FA88138
:1013B000CE59D040C156DF4FB881CF59D04080932D
:1013C000040190930501A0930601B0930701C05654
:1013D000DF4F8881C05AD040CF55DF4F9881C15A26
:1013E000D040CE55DF4FA881C25AD040CD55DF4FF7
:1013F000B881C35AD0408093000190930101A0931B
:101400000201B09303010B2C000CCC08DD08C95578
:10141000DF4FE880F9800A811B81C75AD0409201D2
:10142000A301C856DF4F6881C859D040CC55DF4F63
:101430007881C45AD040CB55DF4F8881C55AD040FF
:10144000CA55DF4F9881C65AD04049CF20E030E0DE
:1014500048EC52E4B201C3010E94000E87FD29C08E
:10146000C456DF4F8882CC59D040C356DF4F988294
:10147000CD59D040C256DF4F0883CE59D040C15617
:10148000DF4F1883CF59D040C057DF4F9881C059E4
:10149000D040C056DF4F9883C05AD040CC56DF4F63
:1014A000A881C459D040CF55DF4FA883C15AD0403E
:1014B00068CF20E030E0A901B201C3010E94640CB2
:1014C00087FDC8CDC856DF4F8881C859D040CC555C
:1014D000DF4F9881C45AD040CB55DF4FA881C55A01
:1014E000D040CA55DF4FB881C65AD040809304011E
:1014F00090930501A0930601B0930701C201D301A7
:101500008093000190930101A0930201B093030125
:10151000FFEFAF1ABF0A35CCC057DF4F4880C05924
:10152000D040CC56DF4F5880C459D0403101C85606
:10153000DF4F8882C859D040CC55DF4F9882C45ABB
:10154000D040CB55DF4F0883C55AD040CA55DF4F36
:101550001883C65AD0401FCF8B3299F420912C03A8
:1015600030912D0340912E0350912F03609132034F
:101570007091330380913403909135030E94F80BEE
:1015800014C08D32D9F420912C0330912D03409159
:101590002E0350912F036091320370913303809199
:1015A0003403909135030E94F70B609332037093DC
:1015B00033038093340390933503AACF8C3729F4F7
:1015C00020ED3FE049E450E4D1CF8B35D1F5809157
:1015D000300390913103803291050CF099CF2CE0CB
:1015E000289FF001299FF00D1124E455FE4F4091F2
:1015F000040150910501609106017091070140833B
:101600005183628373834091000150910101609185
:10161000020170910301448355836683778340916F
:101620003203509133036091340370913503408746
:1016300051876287738701969093310380933003BB
:1016400067CF8D3509F064CF8091300390913103DD
:10165000181619060CF05CCF019790933103809314
:1016600030032CE0289FF001299FF00D1124E45550
:10167000FE4F80819181A281B38180930401909378
:101680000501A0930601B093070184819581A6818D
:10169000B7818093000190930101A0930201B09360
:1016A000030180859185A285B38580933203909351
:1016B0003303A0933403B09335032ACF84E0C65795
:1016C000DF4F8883CA58D040CF54DF4F8881C15B39
:1016D000D040C557DF4F8883CB58D040C457DF4F29
:1016E00019821882CC58D040A6E4B1E0CF57DF4F22
:1016F000B983A883C158D04080910204909103041B
:10170000A0910404B0910504CD57DF4F88839983DD
:10171000AA83BB83C358D04049E350E3BE016F574F
:101720007F4F86E094E00E94900244E050E0BE01CA
:1017300066577F4F86E094E00E94460286E094E080
:101740000E948502CECD873009F0CBCD8D859E8558
:10175000AF85B88949855A856B857C850D811E8149
:101760002F81388500930401109305012093060111
:1017700030930701409300015093010160930201EF
:10178000709303018093320390933303A093340347
:10179000B0933503109231031092300369E871E081
:1017A00083E493E00E944803B5CAA1E21A2EAA1B63
:1017B000BB1BFD010DC0AA1FBB1FEE1FFF1FA21701
:1017C000B307E407F50720F0A21BB30BE40BF50BFE
:1017D000661F771F881F991F1A9469F76095709587
:1017E000809590959B01AC01BD01CF0108955058A3
:1017F000BB27AA270E940F0C0C94B20D0E94790DF2
:1018000038F00E94800D20F039F49F3F19F426F43F
:101810000C94760D0EF4E095E7FB0C94700DE92F17
:101820000E94D70D58F3BA1762077307840795070C
:1018300020F079F4A6F50C94F90D0EF4E0950B2E3A
:10184000BA2FA02D0B01B90190010C01CA01A00112
:101850001124FF27591B99F0593F50F4503E68F16D
:101860001A16F040A22F232F342F4427585FF3CFAE
:10187000469537952795A795F0405395C9F77EF47F
:101880001F16BA0B620B730B840BBAF09150A1F0C8
:10189000FF0FBB1F661F771F881FC2F70EC0BA0F4E
:1018A000621F731F841F48F4879577956795B795D6
:1018B000F7959E3F08F0B0CF9395880F08F09927D1
:1018C000EE0F9795879508950E944C0D08F481E0DE
:1018D00008950E94890DE3950C94C30D0E94820C1B
:1018E0000C94B20D0E94800D58F00E94790D40F0CA
:1018F00029F45F3F29F00C94700D51110C94FA0DEE
:101900000C94760D0E94D70D68F39923B1F35523FB
:1019100091F3951B550BBB27AA2762177307840702
:1019200038F09F5F5F4F220F331F441FAA1FA9F398
:1019300035D00E2E3AF0E0E832D091505040E69586
:10194000001CCAF72BD0FE2F29D0660F771F881FE7
:10195000BB1F261737074807AB07B0E809F0BB0BDA
:10196000802DBF01FF2793585F4F3AF09E3F5105EE
:1019700078F00C94700D0C94FA0D5F3FE4F3983EF0
:10198000D4F3869577956795B795F7959F5FC9F7D7
:10199000880F911D9695879597F90895E1E0660F58
:1019A000771F881FBB1F621773078407BA0720F0D1
:1019B000621B730B840BBA0BEE1F88F7E09508953A
:1019C0000E94DF0D88F09F5798F0B92F9927B751E3
:1019D000B0F0E1F0660F771F881F991F1AF0BA95D3
:1019E000C9F714C0B13091F00E94F90DB1E008952B
:1019F0000C94F90D672F782F8827B85F39F0B93F1D
:101A0000CCF3869577956795B395D9F73EF4909585
:101A10008095709561957F4F8F4F9F4F0895E89403
:101A200009C097FB3EF490958095709561957F4F26
:101A30008F4F9F4F9923A9F0F92F96E9BB279395D4
:101A4000F695879577956795B795F111F8CFFAF4E4
:101A5000BB0F11F460FF1BC06F5F7F4F8F4F9F4F15
:101A600016C0882311F096E911C0772321F09EE873
:101A7000872F762F05C0662371F096E8862F70E0D9
:101A800060E02AF09A95660F771F881FDAF7880FB3
:101A90009695879597F90895990F0008550FAA0B09
:101AA000E0E8FEEF16161706E807F907C0F0121671
:101AB0001306E407F50798F0621B730B840B950B74
:101AC00039F40A2661F0232B242B252B21F40895C9
:101AD0000A2609F4A140A6958FEF811D811D089566
:101AE00097F99F6780E870E060E008959FEF80ECD1
:101AF000089500240A941616170618060906089574
:101B000000240A94121613061406050608950C9470
:101B1000760D0E94DF0DD8F3E894E0E0BB279F57D5
:101B2000F0F02AED3FE049EC06C0EE0FBB0F661F58
:101B3000771F881F28F0B23A62077307840728F0DE
:101B4000B25A620B730B840BE3959A9572F7803847
:101B500030F49A95BB0F661F771F881FD2F7904805
:101B60000C947C0E092E0394000C11F4882352F07F
:101B7000BB0F40F4BF2B11F460FF04C06F5F7F4FB9
:101B80008F4F9F4F0895EF93E0FF07C0A2EA2AED21
:101B90003FE049EC5FEB0E940F0C0E94B20D0F90EA
:101BA000039401FC9058E8E6F0E00C94880E57FD91
:101BB0009058440F551F59F05F3F71F04795880FBB
:101BC00097FB991F61F09F3F79F087950895121652
:101BD00013061406551FF2CF4695F1DF08C01616FE
:101BE00017061806991FF1CF8695710561050894AF
:101BF0000895E894BB2766277727CB0197F90895C6
:101C00000E944C0D08F48FEF08950E94180E0C945A
:101C1000B20D0E94790D38F00E94800D20F09523BE
:101C200011F00C94700D0C94760D11240C94FA0D97
:101C30000E94D70D70F3959FC1F3950F50E0551F8B
:101C4000629FF001729FBB27F00DB11D639FAA2711
:101C5000F00DB11DAA1F649F6627B00DA11D661F60
:101C6000829F2227B00DA11D621F739FB00DA11D81
:101C7000621F839FA00D611D221F749F3327A00D3B
:101C8000611D231F849F600D211D822F762F6A2FD7
:101C900011249F5750409AF0F1F088234AF0EE0F3C
:101CA000FF1FBB1F661F771F881F91505040A9F769
:101CB0009E3F510580F00C94700D0C94FA0D5F3F1F
:101CC000E4F3983ED4F3869577956795B795F795A5
:101CD000E7959F5FC1F7FE2B880F911D969587951D
:101CE00097F908959F930E94890D0F9007FCEE5F6E
:101CF0000C94C30D9F3F31F0915020F48795779558
:101D00006795B795880F911D9695879597F90895D2
:101D10009F938F937F936F93FF93EF939B01AC01FE
:101D20000E94050EEF91FF910E949C0E2F913F9112
:101D30004F915F910C94050EDF93CF931F930F93F8
:101D4000FF92EF92DF927B018C01689406C0DA2E3D
:101D5000EF010E94180EFE01E894A591259135919E
:101D600045915591A6F3EF010E940F0CFE019701DA
:101D7000A801DA9469F7DF90EF90FF900F911F911F
:101D8000CF91DF910895EE0FFF1F0590F491E02DA4
:061D90000994F894FFCF56
:101D96000000C8410000C841000000003A019A0056
:101DA600C7008701F800D600EA00000000006F02B5
:101DB6004602E502A901B502EF01B301BC02B40275
:101DC6009002ED0385020C02B601DE02CE02CA02C3
:101DD600A70100000000A3030D0A004E6F646520F2
:101DE6007374617274696E672E2E2E005265676970
:101DF600737465726564212052616E676520583A76
:101E060020002D0044617461207265636569766502
:101E1600642C206C656E3A200053746174652075DD
:101E2600706461746564202848616E646F766572BB
:0C1E3600207265636569766564292100EF
:00000001FF
